:020000040000FA
:0400000006EF00F017
:0800080021EF00F0FF0E936EE2
:10001000956A8C6A0F0EC16E226A346A966A8D6A7E
:10002000926A896AD08EF19EF180F28EF28CF2880B
:10003000F19C000E226E2DEC00F05CEC00F01DEF48
:1000400000F0F2A21000815022280700226E2DEC51
:1000500000F06BEC00F0F292100022500F0B306EAB
:1000600022380F0B316E34500F0B326E34380F0BB9
:10007000336E1200FA0E246E000000000000000033
:10008000242E3CEF00F01200000EFA6E23502324C1
:10009000980FD8B0FA2AF96E3F0C060C5B0C4F0C87
:1000A000660C6D0C7D0C070C7F0C6F0C770C7C0CB8
:1000B000390C5E0C790C710CFA0E206EFA0E216E62
:1000C00000000000212E60EF00F07AEC00F0202EFE
:1000D0005EEF00F01200960E266EFA0E276E0000FC
:1000E0000000272E6FEF00F07AEC00F0262E6DEF67
:1000F00000F01200836A30C023F044EC00F0836EFD
:10010000040E846E3AEC00F0836A31C023F044ECB4
:1001100000F0836E020E846E3AEC00F0836A32C007
:1001200023F044EC00F0836E010E846E3AEC00F094
:10013000836A846A33C023F044EC00F0836E100EAF
:0A014000806E3AEC00F0806A1200B5
:020000040030CA
:04000000000C1F1EB3
:020005008381F5
:060008000FC00FE00F40E5
:00000001FF
