:020000040000FA
:100000007DEF00F0D9CFE5FFE1CFD9FF00C0E5FFDC
:1000100001C0E5FF010E8C6E8C50800A0DE0960E3B
:1000200076EC01F08C44FE0B006E8C44010B016EEB
:10003000015000108C6EF0D7810E8C6E8C50C00A6F
:1000400007E0960E76EC01F0D8908C368C8EF6D7C1
:10005000C10E8C6E8C50E00A08E0960E76EC01F032
:10006000D8908C36C00E8C12F5D7E10E8C6E8C5069
:10007000F00A08E0960E76EC01F0D8908C36E00E8F
:100080008C12F5D7F10E8C6E8C50F80A08E0960EA3
:1000900076EC01F0D8908C36F00E8C12F5D7F90E74
:1000A0008C6E8C50FC0A08E0960E76EC01F0D8902D
:1000B0008C36F80E8C12F5D7FD0E8C6E8C50FE0A25
:1000C00008E0960E76EC01F0D8908C36FC0E8C127F
:1000D000F5D7960E76EC01F0FE0E8C6E960E76EC51
:1000E00001F0FF0E8C6E960E76EC01F0E4CF01F07D
:1000F000E4CF00F0E4CFD9FF120011EEFFF021EEC3
:10010000FFF0F86AA68EA69C07EEFFF00068ED6A85
:100110000050FDE14C0EF66E030EF76E000EF86E09
:100120000900F5CF05F00900F5CF06F034D009003D
:10013000F5CF00F00900F5CF01F00900F5CF02F08E
:1001400009000900F5CFE9FF0900F5CFEAFF090032
:1001500009000900F5CF03F00900F5CF04F009000C
:100160000900F6CF07F0F7CF08F0F8CF09F000C08C
:10017000F6FF01C0F7FF02C0F8FF03D00900F5CF7A
:10018000EEFF0306FBE20406F9E207C0F6FF08C033
:10019000F7FF09C0F8FF0506CAE20606C8E205EC4B
:1001A00001F0FFD7D9CFE5FFE1CFD9FF00C0E5FFD0
:1001B00001C0E5FF010E8C6E8C50800A0DE0960E9A
:1001C00076EC01F08C44FE0B006E8C44010B016E4A
:1001D000015000108C6EF0D7800E8C6E8C50010A8E
:1001E0000DE0960E76EC01F08C407F0B006E8C409B
:1001F000800B016E015000108C6EF0D7E4CF01F03F
:10020000E4CF00F0E4CFD9FF1200956A8C6A966AB9
:10021000040E8D6EFF0E936EF19E0F0EC16E81CF98
:1002200000F00050010A0DE00050020A0DE00050FD
:10023000040A0DE00050080A0DE00050100A0DE01D
:100240000ED055EC01F00BD034EC01F008D002ECEC
:1002500000F005D0D2EC00F002D095EC01F0320EA7
:1002600076EC01F0DCD71200D9CFE5FFE1CFD9FF62
:1002700000C0E5FF01C0E5FF800E8C6E8C50010AC6
:100280000DE0960E76EC01F08C407F0B006E8C40FA
:10029000800B016E015000108C6EF0D7E4CF01F09E
:1002A000E4CF00F0E4CFD9FF1200D9CFE5FFE1CFD2
:1002B000D9FF00C0E5FF01C0E5FF010E8C6E8C5038
:1002C000800A0DE0960E76EC01F08C44FE0B006E79
:1002D0008C44010B016E015000108C6EF0D7E4CFFE
:1002E00001F0E4CF00F0E4CFD9FF1200E806E56E9C
:1002F000630E89EC01F0E4500BE000D0E56E630E74
:1003000089EC01F000D000D00000E450E82EF6D7D0
:100310001200E8060000E85007E000D000D000D04E
:1003200000D00000E82EFAD71200D9CFE5FFE1CFC8
:10033000D9FF550E8C6E960E76EC01F0AA0E8C6EDF
:10034000960E76EC01F0E4CFD9FF120001005A03BB
:0C03500000006000000001000000000040
:020000040030CA
:010001000CF2
:010003001EDE
:02000500038175
:00000001FF
