:020000040000FA
:0600000006EF00F0000015
:080008005BEF00F011EEFFF0C8
:1000100021EEFFF0F86AA68EA69C07EEFFF00068BE
:10002000ED6A0050FDE1800EF66E010EF76E000ED7
:10003000F86E0900F5CF05F00900F5CF06F034D0D1
:100040000900F5CF00F00900F5CF01F00900F5CF68
:1000500002F009000900F5CFE9FF0900F5CFEAFF3A
:10006000090009000900F5CF03F00900F5CF04F0FD
:1000700009000900F6CF07F0F7CF08F0F8CF09F034
:1000800000C0F6FF01C0F7FF02C0F8FF03D009006F
:10009000F5CFEEFF0306FBE20406F9E207C0F6FF28
:1000A00008C0F7FF09C0F8FF0506CAE20606C8E265
:1000B000C7EC00F0FFD7D8CFE5FFE0CFE5FFE56E56
:1000C000F3CFE5FFF4CFE5FFE9CFE5FFEACFE5FFAA
:1000D000FACFE5FFFBCFE5FFD9CFE5FFE1CFD9FFB1
:1000E000F2A005D081508C1EFA0E8CEC00F0F2903C
:1000F000E4CFD9FFE4CFFBFFE4CFFAFFE4CFEAFF80
:10010000E4CFE9FFE4CFF4FFE4CFF3FFE450E4CF22
:10011000E0FFE4CFD8FF1000E806E56E630E9FEC29
:1001200000F0E4500BE000D0E56E630E9FEC00F0B1
:1001300000D000D00000E450E82EF6D71200E80608
:100140000000E85007E000D000D000D000D0000050
:10015000E82EFAD71200D9CFE5FFE1CFD9FF8C6A9C
:10016000956AFF0E936E8A6A0F0EC16EF28EF28C44
:10017000F286F19EF180D08EF288E4CFD9FF120092
:100180000100040000006000000001000000ABEC72
:0601900000F0FFD7120091
:020000040030CA
:010001000CF2
:010003001EDE
:02000500038175
:00000001FF
