:020000040000FA
:0400000006EF00F017
:0800080030EF00F08A6AF00EEF
:10001000936E0F0EC16E956A8C6A966A8D6A84849F
:10002000386A396A3B6A3A6AD08EF28EF28CF2866E
:10003000F19EF1800E0E3B6E816E86EC00F00D0E8F
:100040003B6E816E86EC00F00B0E3B6E816E86EC93
:1000500000F0070E3B6E816E86EC00F01AEF00F0A8
:10006000F2A0100081500000F00B396E393AF00810
:10007000D8B44BEF00F04DEC00F0386E90EC00F08F
:10008000836E79EC00F079EC00F079EC00F079EC1B
:1000900000F079EC00F0F29010003BB058EF00F067
:1000A00039A0010C39A2020C39A4030C39A60A0CA0
:1000B0003BB263EF00F039A0040C39A2050C39A45F
:1000C000060C39A60B0C3BB46EEF00F039A0070C00
:1000D00039A2080C39A4090C39A60C0C3BB6000C4B
:1000E00039A0000C39A2000C39A4000C39A60D0C63
:1000F000000CFA0E256EFA0E266E00000000262E69
:100100007DEF00F0252E7BEF00F01200FA0E246E3A
:100110000000000000000000242E88EF00F0120014
:10012000010EFA6E38503824300FD8B0FA2AF96E22
:100130003F0C060C5B0C4F0C660C6D0C7D0C070C19
:100140007F0C6F0C770C7C0C390C5E0C790C710CED
:020000040030CA
:04000000000C1F1EB3
:02000500038175
:060008000FC00FE00F40E5
:00000001FF
