:020000040000FA
:1000000064EF00F0D9CFE5FFE1CFD9FF00C0E5FFF5
:10001000020EDBCF00F0100E005CD8B04FD0FA6AB1
:10002000FB6A0034FA36E834FA36FC0B3C0FE56E16
:10003000000EFA22000EFB22E450F96E3EEF00F0B3
:1000400040EF00F042EF00F044EF00F046EF00F028
:1000500048EF00F04AEF00F04CEF00F04EEF00F0F8
:1000600050EF00F052EF00F054EF00F056EF00F0C8
:1000700058EF00F05AEF00F05CEF00F03F0E1FD099
:10008000060E1DD05B0E1BD04F0E19D0660E17D07A
:100090006D0E15D07D0E13D0070E11D07F0E0FD030
:1000A0006F0E0DD0770E0BD07C0E09D0390E07D015
:1000B0005E0E05D0790E03D0710E01D0E86AE4CF50
:1000C00000F0E4CFD9FF120011EEFFF021EEFFF0B7
:1000D000F86AA68EA69C07EEFFF00068ED6A005055
:1000E000FDE1DA0EF66E010EF76E000EF86E0900F5
:1000F000F5CF05F00900F5CF06F034D00900F5CFB3
:1001000000F00900F5CF01F00900F5CF02F0090079
:100110000900F5CFE9FF0900F5CFEAFF0900090062
:100120000900F5CF03F00900F5CF04F0090009003C
:10013000F6CF07F0F7CF08F0F8CF09F000C0F6FFD0
:1001400001C0F7FF02C0F8FF03D00900F5CFEEFFB2
:100150000306FBE20406F9E207C0F6FF08C0F7FF5A
:1001600009C0F8FF0506CAE20606C8E2D8EC00F0AE
:10017000FFD7E806E56E630ECCEC00F0E4500BE030
:1001800000D0E56E630ECCEC00F000D000D0000093
:10019000E450E82EF6D71200E8060000E85007E029
:1001A00000D000D000D000D00000E82EFAD7120016
:1001B000956A8C6A966A040E8D6E006A0050E56E30
:1001C00002EC00F08C6EE652FA0EB9EC00F0002A58
:1001D0000F0E005CF3E3F1D712000100E80100000C
:0A01E00060000000010000000000B4
:020000040030CA
:010001000CF2
:010003001EDE
:02000500038175
:00000001FF
