:020000040000FA
:10000000956A8C6A8A6AF19EFF0E936E0F0EC16E1E
:10001000010E836E8150010AD8B425EF00F0030A67
:10002000D8B43BEF00F0060AD8B432EF00F00C0A67
:10003000D8B444EF00F0180AD8B44DEF00F0300AFD
:10004000D8B45EEF00F00AEF00F06FEC00F08336FA
:10005000D8A025EF00F06FEC00F08332D8A02BEF92
:1000600000F01200800E836E6FEC00F08332D8A097
:1000700034EF00F01200010E836E6FEC00F0833657
:10008000D8A03DEF00F01200AA0E836E6FEC00F0D6
:10009000550E836E6FEC00F01200180E836E6FEC3D
:1000A00000F0240E836E6FEC00F0420E836E6FEC56
:1000B00000F0810E836E6FEC00F01200810E836EF3
:1000C0006FEC00F0420E836E6FEC00F0240E836E36
:1000D0006FEC00F0180E836E6FEC00F01200FA0E59
:1000E000206EFA0E216E00000000212E73EF00F04A
:0800F000202E71EF00F0120058
:020000040030CA
:04000000000C1F1EB3
:02000500018177
:060008000FC00FE00F40E5
:00000001FF
