:020000040000FA
:0400000006EF00F017
:0800080018EF00F0956A8C6A04
:100010008A6AF19EFF0E936E0F0EC16E896A926A14
:10002000D08EF280F28CF28EF1808D6A966A346AFC
:100030008150F290226A94EC00F0C3EC00F0815001
:10004000010AD8B43AEF00F0030AD8B459EF00F02F
:10005000060AD8B443EF00F00C0AD8B464EF00F0FD
:10006000180AD8B46FEF00F0300AD8B482EF00F06D
:1000700018EF00F094EC00F0C3EC00F0222AC3EC7F
:1000800000F03AEF00F0226A346A94EC00F0C3EC1E
:1000900000F022280700226E600AD8A445EF00F085
:1000A000226A34280700346E600AD8B4120045EF83
:1000B00000F094EC00F0C3EC00F022280700226E60
:1000C000C3EC00F059EF00F0FF0E226E94EC00F04C
:1000D000C3EC00F0222E66EF00F064EF00F0226A1D
:1000E000346A94EC00F0C3EC00F022280700226E82
:1000F000D8A071EF00F034280700346ED8A071EF5B
:1001000000F01200226A346A94EC00F0C3EC00F0B4
:100110002228226ED8A484EF00F0226A3428346E9C
:10012000D8A484EF00F0120022500F0B306E22385A
:100130000F0B316E34500F0B326E34380F0B336EA1
:100140001200FA0E246E0000000000000000242EB1
:10015000A3EF00F01200010EFA6E23502324660F65
:10016000D8B0FA2AF96E3F0C060C5B0C4F0C660CEB
:100170006D0C7D0C070C7F0C6F0C770C7C0C390C14
:100180005E0C790C710CFA0E206EFA0E216E0000D6
:100190000000212EC7EF00F0D2EC00F0202EC5EFBA
:1001A00000F01200836A30C023F0ABEC00F0836EE5
:1001B000040E846EA1EC00F0836A31C023F0ABEC36
:1001C00000F0836E020E846EA1EC00F0836A32C0F0
:1001D00023F0ABEC00F0836E010E846EA1EC00F016
:1001E000836A846A33C023F0ABEC00F0836E100E98
:0A01F000806EA1EC00F0806A12009E
:020000040030CA
:04000000000C1F1EB3
:020005008381F5
:060008000FC00FE00F40E5
:00000001FF
