:020000040000FA
:040000008DEF01F08F
:08000800D3EF02F0D9CFE5FFB0
:10001000E1CFD9FF00C0E5FF01C0E5FF02C0E5FF69
:1000200003C0E5FF04C0E5FF05C0E5FF06C0E5FF2E
:1000300007C0E5FF08C0E5FF020EDBCF00F0030EAE
:10004000DBCF01F00050026E0150036E270E035CFF
:1000500002E1100E025C38E2026A0150001034E046
:10006000600E0224036E046A000E04220050056E26
:100070000150066E000EE56E0A0EE56E0650E56E46
:100080000550E56EDBEC00F0076EF3CF08F0040ED0
:10009000E12603C0E9FF04C0EAFF07C0EFFF000E3E
:1000A000E56E0A0EE56E0650E56E0550E56EE2EC73
:1000B00001F0036EF3CF04F0040EE1260350006E4E
:1000C0000450016E022AC9D7E4CF08F0E4CF07F04C
:1000D000E4CF06F0E4CF05F0E4CF04F0E4CF03F082
:1000E000E4CF02F0E4CF01F0E4CF00F0E4CFD9FF99
:1000F0001200D9CFE5FFE1CFD9FF00C0E5FF020E26
:10010000DBCF00F0100E005CD8B04FD0FA6AFB6A6B
:100110000034FA36E834FA36FC0B2A0FE56E010E8D
:10012000FA22000EFB22E450F96EB5EF00F0B7EFB3
:1001300000F0B9EF00F0BBEF00F0BDEF00F0BFEF53
:1001400000F0C1EF00F0C3EF00F0C5EF00F0C7EF23
:1001500000F0C9EF00F0CBEF00F0CDEF00F0CFEFF3
:1001600000F0D1EF00F0D3EF00F03F0E1FD0060EED
:100170001DD05B0E1BD04F0E19D0660E17D06D0E22
:1001800015D07D0E13D0070E11D07F0E0FD06F0E3D
:100190000DD0770E0BD07C0E09D0390E07D05E0E35
:1001A00005D0790E03D0710E01D0E86AE4CF00F0DB
:1001B000E4CFD9FF1200D9CFE5FFE1CFD9FF00C0CE
:1001C000E5FF01C0E5FF02C0E5FF03C0E5FF04C095
:1001D000E5FF05C0E5FF06C0E5FF020EDBCF00F03E
:1001E000030EDBCF01F0040EDBCF02F0050EDBCFF8
:1001F00003F0046A056A0350800BE844066E06505B
:1002000011E10250022603360350015C02E1025064
:10021000005C04E2D8900332023204D0052A05C003
:1002200004F0E9D70350015C02E10250005C04E3F2
:100230000250005E0350015AD8900332023204C0CB
:1002400005F004060550EEE101C0F3FF0050E4CFD5
:1002500006F0E4CF05F0E4CF04F0E4CF03F0E4CF00
:1002600002F0E4CF01F0E4CF00F0E4CFD9FF1200B8
:10027000D9CFE5FFE1CFD9FF00C0E5FF01C0E5FF21
:100280008D6A896A600E00016425006E016A000EA5
:10029000012200C0E9FF01C0EAFFEFCF00F00050EB
:1002A000E56E79EC00F08C6EE652040E0001645DA0
:1002B00025E2FA6AFB6A00016435FA36E834FA3658
:1002C000FC0BD20FE56E020EFA22000EFB22E45068
:1002D000F96E71EF01F075EF01F078EF01F07BEF4F
:1002E00001F0896A040E8D6E09D0020E8D6E06D063
:1002F000010E8D6E03D08D6A100E896E0001642B85
:10030000040E0001645D02E30001646BE4CF01F0C0
:10031000E4CF00F0E4CFD9FF120011EEFFF021EEA0
:10032000FFF0F86AA68EA69C07EEFFF00068ED6A63
:100330000050FDE1CE0EF66E060EF76E000EF86E62
:100340000900F5CF05F00900F5CF06F034D009001B
:10035000F5CF00F00900F5CF01F00900F5CF02F06C
:1003600009000900F5CFE9FF0900F5CFEAFF090010
:1003700009000900F5CF03F00900F5CF04F00900EA
:100380000900F6CF07F0F7CF08F0F8CF09F000C06A
:10039000F6FF01C0F7FF02C0F8FF03D00900F5CF58
:1003A000EEFF0306FBE20406F9E207C0F6FF08C011
:1003B000F7FF09C0F8FF0506CAE20606C8E224EC0A
:1003C00003F0FFD7D9CFE5FFE1CFD9FF00C0E5FFAC
:1003D00001C0E5FF02C0E5FF03C0E5FF04C0E5FF83
:1003E00005C0E5FF06C0E5FF07C0E5FF020EDBCF55
:1003F00000F0030EDBCF01F0040EDBCF02F0050EA0
:10040000DBCF03F0046A056A100E066E0150800B04
:10041000E844076E005000260136045004260536D5
:100420000750D8A404800350055C02E10250045C2C
:1004300005E30250045E0350055A0080060606508C
:10044000E5E101C0F3FF0050E4CF07F0E4CF06F090
:10045000E4CF05F0E4CF04F0E4CF03F0E4CF02F002
:10046000E4CF01F0E4CF00F0E4CFD9FF1200E806BA
:10047000E56E630E63EC02F0E4500BE000D0E56E35
:10048000630E63EC02F000D000D00000E450E82ED0
:10049000F6D71200E806E56E630E37EC02F0630E45
:1004A00063EC02F0E4500EE000D0E56E630E37EC32
:1004B00002F0630E63EC02F000D000D00000E450C4
:1004C000E82EF3D71200E8060000E85007E000D05D
:1004D00000D000D000D00000E82EFAD71200D9CF0B
:1004E000E5FFE1CFD9FF00C0E5FF01C0E5FF02C095
:1004F000E5FF03C0E5FF0F0E006E270E016ED880EA
:1005000001AED89013E20050026E0150036E03500A
:10051000E56E0250E56E06EC00F0E652E652050E7E
:100520004AEC02F0FF0E00260122E9D7E4CF03F0E7
:10053000E4CF02F0E4CF01F0E4CF00F0E4CFD9FF44
:100540001200D9CFE5FFE1CFD9FF00C0E5FF01C020
:10055000E5FF02C0E5FF03C0E5FF006A016A015044
:10056000800F590F02E10F0E005C12E20050026E84
:100570000150036E0350E56E0250E56E06EC00F08C
:10058000E652E652050E4AEC02F0004A012AE7D78D
:10059000E4CF03F0E4CF02F0E4CF01F0E4CF00F0C9
:1005A000E4CFD9FF1200D8CFE5FFE0CFE5FFE56E3D
:1005B000F3CFE5FFF4CFE5FFE9CFE5FFEACFE5FFB5
:1005C000FACFE5FFFBCFE5FFD9CFE5FFE1CFD9FFBC
:1005D000F2A404D038EC01F0E60ED66EF294E4CF2B
:1005E000D9FFE4CFFBFFE4CFFAFFE4CFEAFFE4CF8B
:1005F000E9FFE4CFF4FFE4CFF3FFE450E4CFE0FF02
:10060000E4CFD8FF1000D9CFE5FFE1CFD9FF8C6A46
:10061000956AFF0E936E8A6A966A8D6A010E926ED3
:10062000896AF28EF28CF296F19EF180D08EF28A77
:10063000F184D58CD59AD596D550F80B0709D56E8F
:10064000D58EE4CFD9FF120003EC03F040EC03F0A9
:10065000C280C282640E37EC02F0C2B2FED76EECEA
:1006600003F0006EF3CF01F058EC03F00150E56E9B
:100670000050E56E06EC00F0E652E652EAD71200B2
:10068000D9CFE5FFE1CFD9FFC250C30BC26EC15035
:10069000F00B0E09C16EC08EC050C70B2809C06E8A
:1006A000C050F80B0109C06EC280E4CFD9FF120020
:1006B000D9CFE5FFE1CFD9FF0001606B0001616B8D
:1006C0000001626B0001636BE4CFD9FF12000100EF
:1006D000E40600006000000006000000C4CFF3FF45
:0A06E000C3501200000000000000EB
:020000040030CA
:010001000CF2
:010003001EDE
:02000500038175
:00000001FF
