:020000040000FA
:1000000060EF00F0D9CFE5FFE1CFD9FF00C0E5FFF9
:1000100001C0E5FF02C0E5FF03C0E5FF04C0E5FF46
:1000200005C0E5FF06C0E5FF020EDBCF00F0030EC2
:10003000DBCF01F0040EDBCF02F0036A0350002493
:10004000046EE86A0120056EE86A0220066E04C0AC
:10005000F6FF05C0F7FF06C0FAFF2AEC02F037EC06
:1000600002F0046E04501BE003500024046EE86AA2
:100070000120056EE86A0220066E032A04C0F6FF1E
:1000800005C0F7FF06C0FAFF2AEC02F037EC02F0D9
:10009000046E0450E56ECEEC01F0E652CFD7E4CF0B
:1000A00006F0E4CF05F0E4CF04F0E4CF03F0E4CFB2
:1000B00002F0E4CF01F0E4CF00F0E4CFD9FF12006A
:1000C00011EEFFF021EEFFF0F86AA68EA69C07EE77
:1000D000FFF00068ED6A0050FDE1920EF66E040E2E
:1000E000F76E000EF86E0900F5CF05F00900F5CFA8
:1000F00006F034D00900F5CF00F00900F5CF01F08B
:100100000900F5CF02F009000900F5CFE9FF090069
:10011000F5CFEAFF090009000900F5CF03F0090057
:10012000F5CF04F009000900F6CF07F0F7CF08F08B
:10013000F8CF09F000C0F6FF01C0F7FF02C0F8FFDA
:1001400003D00900F5CFEEFF0306FBE20406F9E257
:1001500007C0F6FF08C0F7FF09C0F8FF0506CAE2AE
:100160000606C8E2B5EC00F0FFD7720ED36E05ECC0
:1001700001F0000E026E020E016E560E006E02506D
:10018000E56E0150E56E0050E56E02EC00F0030EE6
:10019000E126010EE56E080EE56E3EEC01F0E6523A
:1001A000E652310EE56ECEEC01F0E652010EE56E40
:1001B000A3EC01F0E652000E026E020E016E640E18
:1001C000006E0250E56E0150E56E0050E56E02ECE7
:1001D00000F0030EE126010EE56E000EE56E3EEC2A
:1001E00001F0E652E652000E026E020E016E720E31
:1001F000006E0250E56E0150E56E0050E56E02ECB7
:1002000000F0030EE126FFD71200D9CFE5FFE1CFC2
:10021000D9FF836A956A838E0F0EF6EC01F0320ED9
:10022000E56EA3EC01F0E652280EE56EA3EC01F0BA
:10023000E6520C0EE56EA3EC01F0E652010EE56EFF
:10024000A3EC01F0E652060EE56EA3EC01F0E652D7
:10025000E4CFD9FF12002048656C6C6F20576F7295
:100260006C642100204C434420446973706C6179B4
:1002700000004D6963726F204C616200D9CFE5FFC9
:10028000E1CFD9FF00C0E5FF01C0E5FF02C0E5FFF7
:10029000020EDBCF00F0030EDBCF01F00150026E47
:1002A0000250800F7E0F03E2100E005C01E312D0BB
:1002B0000150010A04E1C00E0010016E03D0800E4F
:1002C0000010016E0150E56EA3EC01F0E652050E40
:1002D000F6EC01F0E4CF02F0E4CF01F0E4CF00F05F
:1002E000E4CFD9FF1200D9CFE5FFE1CFD9FF00C09D
:1002F000E5FF01C0E5FF02C0E5FF020EDBCF00F025
:10030000030EDBCF01F000380F0B006E0F0E00164E
:1003100083CF02F0F00E0214836E0050831201505E
:10032000010BE838F46E8350EF0BF410836E839A60
:10033000838C839CE4CF02F0E4CF01F0E4CF00F0A3
:10034000E4CFD9FF1200D9CFE5FFE1CFD9FF00C03C
:10035000E5FF01C0E5FF020EDBCF00F0050EF6EC75
:1003600001F0000EE56E0050E56E73EC01F0E65210
:10037000E6520038F00B016E010EF6EC01F0000EB3
:10038000E56E0150E56E73EC01F0E652E652E4CF03
:1003900001F0E4CF00F0E4CFD9FF1200D9CFE5FFA0
:1003A000E1CFD9FF00C0E5FF01C0E5FF020EDBCFC2
:1003B00000F0050EF6EC01F0010EE56E0050E56E62
:1003C00073EC01F0E652E6520038F00B016E010EBC
:1003D000E56E0150E56E73EC01F0E652E652E4CFB3
:1003E00001F0E4CF00F0E4CFD9FF1200E806E56E9B
:1003F000630E09EC02F0E4500BE000D0E56E630EF2
:1004000009EC02F000D000D00000E450E82EF6D74E
:100410001200E8060000E85007E000D000D000D04D
:1004200000D00000E82EFAD71200F2CFF6FFF29EBD
:10043000A680A850A92AA680A8CFF3FFA92AA68043
:10044000A8CFF4FFA92AA680A8CFF5FFA92AF6BE57
:10045000F28E1200FAAE05D0F7CFEAFFF6CFE9FF31
:100460001200FABC55EF02F0FACFF8FF1200FAAE14
:1004700002D0EE501200FABC59EF02F00900F5501C
:100480001200F2CFF6FFF29EA680A850F6BEF28EC2
:1004900012000100B6040000660000000100000028
:1004A000F6CFA9FFA69EA69C120050EF02F015EF12
:0804B00002F041EF02F0000030
:020000040030CA
:010001000CF2
:010003001EDE
:02000500038175
:00000001FF
