:020000040000FA
:04000000F9EF01F023
:08000800A3EF02F0D9CFE5FFE0
:10001000E1CFD9FF00C0E5FF01C0E5FF02C0E5FF69
:1000200003C0E5FF04C0E5FF05C0E5FF06C0E5FF2E
:1000300007C0E5FF08C0E5FF020EDBCF00F0030EAE
:10004000DBCF01F00050026E0150036E270E035CFF
:1000500002E1100E025C38E2026A0150001034E046
:10006000600E0224036E046A000E04220050056E26
:100070000150066E000EE56E0A0EE56E0650E56E46
:100080000550E56E47EC01F0076EF3CF08F0040E63
:10009000E12603C0E9FF04C0EAFF07C0EFFF000E3E
:1000A000E56E0A0EE56E0650E56E0550E56E4EEC07
:1000B00002F0036EF3CF04F0040EE1260350006E4D
:1000C0000450016E022AC9D7E4CF08F0E4CF07F04C
:1000D000E4CF06F0E4CF05F0E4CF04F0E4CF03F082
:1000E000E4CF02F0E4CF01F0E4CF00F0E4CFD9FF99
:1000F0001200D9CFE5FFE1CFD9FF00C0E5FF01C075
:10010000E5FF02C0E5FF006A81CF01F0026AF00E50
:100110000116026A0150F00A02E1025001E001D02A
:100120004BD081B011D081B802D0010E006E81BADF
:1001300002D0020E006E81BC02D0030E006E81BEA2
:1001400036D00A0E006E33D081B211D081B802D001
:10015000040E006E81BA02D0050E006E81BC02D082
:10016000060E006E81BE23D00B0E006E20D081B42F
:1001700011D081B802D0070E006E81BA02D0080EED
:10018000006E81BC02D0090E006E81BE10D00C0E34
:10019000006E0DD081B60BD081BA01D0006A81BC4F
:1001A00002D00F0E006E81BE02D00D0E006E11EC5B
:1001B00003F000500001606FE4CF02F0E4CF01F0E3
:1001C000E4CF00F0E4CFD9FF1200D9CFE5FFE1CFB3
:1001D000D9FF00C0E5FF020EDBCF00F0100E005C7F
:1001E000D8B04FD0FA6AFB6A0034FA36E834FA36EF
:1001F000FC0B020FE56E020EFA22000EFB22E45009
:10020000F96E21EF01F023EF01F025EF01F027EF68
:1002100001F029EF01F02BEF01F02DEF01F02FEFAE
:1002200001F031EF01F033EF01F035EF01F037EF7E
:1002300001F039EF01F03BEF01F03DEF01F03FEF4E
:1002400001F03F0E1FD0060E1DD05B0E1BD04F0ECF
:1002500019D0660E17D06D0E15D07D0E13D0070E77
:1002600011D07F0E0FD06F0E0DD0770E0BD07C0EFD
:1002700009D0390E07D05E0E05D0790E03D0710E6D
:1002800001D0E86AE4CF00F0E4CFD9FF1200D9CF63
:10029000E5FFE1CFD9FF00C0E5FF01C0E5FF02C0E7
:1002A000E5FF03C0E5FF04C0E5FF05C0E5FF06C0AC
:1002B000E5FF020EDBCF00F0030EDBCF01F0040EF2
:1002C000DBCF02F0050EDBCF03F0046A056A0350B2
:1002D000800BE844066E065011E1025002260336F8
:1002E0000350015C02E10250005C04E2D89003324A
:1002F000023204D0052A05C004F0E9D70350015C9E
:1003000002E10250005C04E30250005E0350015A17
:10031000D8900332023204C005F004060550EEE125
:1003200001C0F3FF0050E4CF06F0E4CF05F0E4CFC6
:1003300004F0E4CF03F0E4CF02F0E4CF01F0E4CF27
:1003400000F0E4CFD9FF1200D9CFE5FFE1CFD9FF0C
:1003500000C0E5FF01C0E5FF8D6A896A600E0001FB
:100360006425006E016A000E012200C0E9FF01C091
:10037000EAFFEFCF00F00050E56EE5EC00F08C6E88
:10038000E652040E0001645D25E2FA6AFB6A000190
:100390006435FA36E834FA36FC0BAA0FE56E030E24
:1003A000FA22000EFB22E450F96EDDEF01F0E1EFDE
:1003B00001F0E4EF01F0E7EF01F0896A040E8D6EC1
:1003C00009D0020E8D6E06D0010E8D6E03D08D6A9F
:1003D000100E896E0001642B040E0001645D02E3BF
:1003E0000001646BE4CF01F0E4CF00F0E4CFD9FF6B
:1003F000120011EEFFF021EEFFF0F86AA68EA69C27
:1004000007EEFFF00068ED6A0050FDE1A80EF66E01
:10041000060EF76E000EF86E0900F5CF05F0090024
:10042000F5CF06F034D00900F5CF00F00900F5CF84
:1004300001F00900F5CF02F009000900F5CFE9FF4E
:100440000900F5CFEAFF090009000900F5CF03F024
:100450000900F5CF04F009000900F6CF07F0F7CF47
:1004600008F0F8CF09F000C0F6FF01C0F7FF02C0A6
:10047000F8FF03D00900F5CFEEFF0306FBE2040608
:10048000F9E207C0F6FF08C0F7FF09C0F8FF05064C
:10049000CAE20606C8E2F7EC02F0FFD7D9CFE5FFC3
:1004A000E1CFD9FF00C0E5FF01C0E5FF02C0E5FFD5
:1004B00003C0E5FF04C0E5FF05C0E5FF06C0E5FF9A
:1004C00007C0E5FF020EDBCF00F0030EDBCF01F02B
:1004D000040EDBCF02F0050EDBCF03F0046A056AE1
:1004E000100E066E0150800BE844076E0050002687
:1004F00001360450042605360750D8A40480035062
:10050000055C02E10250045C05E30250045E035006
:10051000055A008006060650E5E101C0F3FF0050D1
:10052000E4CF07F0E4CF06F0E4CF05F0E4CF04F029
:10053000E4CF03F0E4CF02F0E4CF01F0E4CF00F029
:10054000E4CFD9FF1200D8CFE5FFE0CFE5FFE56E9D
:10055000F3CFE5FFF4CFE5FFE9CFE5FFEACFE5FF15
:10056000FACFE5FFFBCFE5FFD9CFE5FFE1CFD9FF1C
:10057000F2A404D0A4EC01F0FA0ED66EF294F2A02C
:1005800002D079EC00F0F290E4CFD9FFE4CFFBFF8A
:10059000E4CFFAFFE4CFEAFFE4CFE9FFE4CFF4FFD2
:1005A000E4CFF3FFE450E4CFE0FFE4CFD8FF100046
:1005B000E806E56E630EEBEC02F0E4500BE000D0D1
:1005C000E56E630EEBEC02F000D000D00000E450CA
:1005D000E82EF6D71200E8060000E85007E000D049
:1005E00000D000D000D00000E82EFAD712002BEC8B
:1005F00003F043EC03F00E0E816E640ED8EC02F0B3
:100600000D0E816E640ED8EC02F00B0E816E640E3E
:10061000D8EC02F0070E816E640ED8EC02F0EBD736
:100620001200D9CFE5FFE1CFD9FF00C0E5FF62C0DE
:1006300000F000500001636F61C000F00050000145
:10064000626F60C000F000500001616FE4CF00F005
:10065000E4CFD9FF1200D9CFE5FFE1CFD9FF8C6AF3
:10066000956AF00E936E8A6A0F0EC16EF19E966ABD
:100670008D6A926A896AF28EF28CF286F180D08E4F
:10068000E4CFD9FF1200D9CFE5FFE1CFD9FFF28A3D
:10069000F184D58CD59AD596D550F80B0709D56E2F
:1006A000D58EE4CFD9FF12000100B606000060002D
:0C06B00000000600000000000000000038
:020000040030CA
:010001000CF2
:010003001EDE
:02000500038175
:00000001FF
